:020000040800F2
:1000000000100020F5030008FB030008FB030008B4
:1000100000000000000000000000000000000000E0
:0C002000000000000000000000000000D4
:10002C00802303490A681A42FCD0024B18607047BF
:10003C001C38014028380140202304490A681A4220
:10004C00FCD0034B1868C0B27047C0461C38014046
:10005C0024380140F0B5C3B0FFF7EEFF01ACE070FF
:10006C00FFF7EAFFA070FFF7E7FF6070FFF7E4FF10
:10007C0000231D002070E25C01335540042BFAD1A3
:10008C00FFF7DAFFA84204D01F20FFF7C9FF43B0E7
:10009C00F0BD7920FFF7C4FFFFF7CEFF0027060065
:1000AC00441CFFF7C9FF02AD785501374640BC42EE
:1000BC00F7D8FFF7C1FFB042E6D1134B134A1449EE
:1000CC001A60144AA4081A6001230A681A42FCD167
:1000DC00114AA4001068034301201360019BE4182B
:1000EC00ED1AA34209D10121136879208B431360C7
:1000FC00802311680B431360C7E7EE581E600E682F
:10010C000642FCD10433ECE704200240230167458E
:10011C000C200240AB89EFCD1020024010B572B616
:10012C00044B054A93601A68044B1B6882F30888D9
:10013C00984710BD0004000800ED00E0040400081E
:10014C00F7B501228C4B19680A431A600222196810
:10015C001142FCD08023894A5B051168884C0B4303
:10016C00136048F20003874A11680B43136040F296
:10017C000013854A11680B4313602268834B9A4223
:10018C0001D0FFF7CBFFCA22814B1A60773A1A6075
:10019C0000222260FF321A6080237E4A9B02116883
:1001AC000B43136044F200037B4A11680B4313604A
:1001BC0010227A4B45F200011A60794B0132FF3262
:1001CC001A60784A243B1A60774B784A1A60784B4D
:1001DC00784A1A608A22784B1A60784B784A1A60EF
:1001EC00784A1160012219680A431A60FFF724FF4C
:1001FC007F28FBD10638FFF713FF0126FFF71CFF02
:10020C000400FFF719FF6040C5B2FF2D01D01F207D
:10021C0024E07920FFF704FF212C5BD021D8022C9D
:10022C006CD0112C72D0002CF1D10620FFF7F8FE07
:10023C001020FFF7F5FE2000FFF7F2FE0220FFF77B
:10024C00EFFE1120FFF7ECFE3120FFF7E9FE432013
:10025C00FFF7E6FE2120FFF7E3FE7920FFF7E0FE33
:10026C00CCE7312C00D184E0432CD0D1FFF7E4FE55
:10027C00002405000134E4B2FFF7DEFEA542F9D2FA
:10028C000224FFF7D9FE504B504A51481A60514A8C
:10029C001A60514A3423036003683342FCD14F4B3C
:1002AC001968214319604E490A6040211D68294391
:1002BC00196001683142FCD11968A143196040F200
:1002CC000041521847498A42E4D1802219680A43F6
:1002DC001A60C2E7FFF7B0FEFFF7AEFEFFF7ACFE09
:1002EC00FFF7AAFEFFF7A8FE7920FFF799FEC0469C
:1002FC00013D002DFBD1FFF711FF7FE73000FFF729
:10030C008FFE0420FFF78CFE4420A4E7FFF794FE39
:10031C0001ACE070FFF790FEA070FFF78DFE6070EF
:10032C00FFF78AFE00231D002070E25C013355406C
:10033C00042BFAD1FFF780FEA84200D067E77920A2
:10034C00FFF76EFEFFF778FE0400FFF775FE6040C6
:10035C00C0B2FF2800D05AE700258638FFF760FEB0
:10036C00019F785D0135FFF75BFEABB29C42F8D282
:10037C0044E7FFF76FFE41E7001002401C100240FB
:10038C005028004020100240007000404E454C4266
:10039C00242800401410024018100240200000488D
:1003AC0024000048080028280C00004808001424E9
:1003BC00080000480400140C0C38014000380140BF
:1003CC000C0040000838014004200240230167451E
:1003DC000C200240AB89EFCD000400081020024035
:1003EC001420024000400008FFF7AAFEFEE7FEE7DB
:04000005080003F5F7
:00000001FF
